{
  "contractName": "ApolloAgreement",
  "abi": [
    {
      "anonymous": false,
      "inputs": [
        {
          "indexed": false,
          "internalType": "uint256",
          "name": "agreementId",
          "type": "uint256"
        },
        {
          "indexed": false,
          "internalType": "uint256",
          "name": "payoutAmount",
          "type": "uint256"
        },
        {
          "indexed": false,
          "internalType": "uint32",
          "name": "payoutTime",
          "type": "uint32"
        },
        {
          "indexed": false,
          "internalType": "address[]",
          "name": "payoutDestination",
          "type": "address[]"
        }
      ],
      "name": "NewAgreement",
      "type": "event"
    },
    {
      "inputs": [
        {
          "internalType": "uint256",
          "name": "",
          "type": "uint256"
        }
      ],
      "name": "agreementToPromoter",
      "outputs": [
        {
          "internalType": "address",
          "name": "",
          "type": "address"
        }
      ],
      "stateMutability": "view",
      "type": "function",
      "constant": true
    },
    {
      "inputs": [
        {
          "internalType": "uint256",
          "name": "",
          "type": "uint256"
        }
      ],
      "name": "agreements",
      "outputs": [
        {
          "internalType": "uint256",
          "name": "payoutAmount",
          "type": "uint256"
        },
        {
          "internalType": "uint32",
          "name": "payoutTime",
          "type": "uint32"
        }
      ],
      "stateMutability": "view",
      "type": "function",
      "constant": true
    },
    {
      "inputs": [
        {
          "internalType": "address",
          "name": "",
          "type": "address"
        }
      ],
      "name": "promoterAgreementCount",
      "outputs": [
        {
          "internalType": "uint32",
          "name": "",
          "type": "uint32"
        }
      ],
      "stateMutability": "view",
      "type": "function",
      "constant": true
    },
    {
      "inputs": [
        {
          "internalType": "uint32",
          "name": "_payoutTime",
          "type": "uint32"
        },
        {
          "internalType": "address[]",
          "name": "_payoutDestination",
          "type": "address[]"
        }
      ],
      "name": "createAgreement",
      "outputs": [],
      "stateMutability": "payable",
      "type": "function",
      "payable": true
    },
    {
      "inputs": [
        {
          "internalType": "address",
          "name": "_promoter",
          "type": "address"
        }
      ],
      "name": "getAgreementsByPromoter",
      "outputs": [
        {
          "components": [
            {
              "internalType": "uint256",
              "name": "payoutAmount",
              "type": "uint256"
            },
            {
              "internalType": "uint32",
              "name": "payoutTime",
              "type": "uint32"
            },
            {
              "internalType": "address[]",
              "name": "payoutDestination",
              "type": "address[]"
            }
          ],
          "internalType": "struct ApolloAgreement.Agreement[]",
          "name": "",
          "type": "tuple[]"
        }
      ],
      "stateMutability": "view",
      "type": "function",
      "constant": true
    }
  ],
  "bytecode": "0x608060405234801561001057600080fd5b50610e8e806100206000396000f3fe6080604052600436106100495760003560e01c8062319d4b1461004e5780632051cb391461008b578063bd14de96146100c8578063ce6f311314610106578063fe39595d14610143575b600080fd5b34801561005a57600080fd5b5061007560048036038101906100709190610858565b61015f565b6040516100829190610adc565b60405180910390f35b34801561009757600080fd5b506100b260048036038101906100ad919061082f565b610192565b6040516100bf9190610af7565b60405180910390f35b3480156100d457600080fd5b506100ef60048036038101906100ea9190610858565b610461565b6040516100fd929190610b65565b60405180910390f35b34801561011257600080fd5b5061012d6004803603810190610128919061082f565b6104a5565b60405161013a9190610b8e565b60405180910390f35b61015d60048036038101906101589190610881565b6104c8565b005b60016020528060005260406000206000915054906101000a900473ffffffffffffffffffffffffffffffffffffffff1681565b60606000600260008473ffffffffffffffffffffffffffffffffffffffff1673ffffffffffffffffffffffffffffffffffffffff16815260200190815260200160002060009054906101000a900463ffffffff1663ffffffff1667ffffffffffffffff81111561022b577f4e487b7100000000000000000000000000000000000000000000000000000000600052604160045260246000fd5b60405190808252806020026020018201604052801561026457816020015b61025161068c565b8152602001906001900390816102495790505b5090506000805b600080549050811015610456578473ffffffffffffffffffffffffffffffffffffffff166001600083815260200190815260200160002060009054906101000a900473ffffffffffffffffffffffffffffffffffffffff1673ffffffffffffffffffffffffffffffffffffffff1614156104435760008181548110610319577f4e487b7100000000000000000000000000000000000000000000000000000000600052603260045260246000fd5b9060005260206000209060030201604051806060016040529081600082015481526020016001820160009054906101000a900463ffffffff1663ffffffff1663ffffffff168152602001600282018054806020026020016040519081016040528092919081815260200182805480156103e757602002820191906000526020600020905b8160009054906101000a900473ffffffffffffffffffffffffffffffffffffffff1673ffffffffffffffffffffffffffffffffffffffff168152602001906001019080831161039d575b505050505081525050838381518110610429577f4e487b7100000000000000000000000000000000000000000000000000000000600052603260045260246000fd5b6020026020010181905250818061043f90610d2e565b9250505b808061044e90610d2e565b91505061026b565b508192505050919050565b6000818154811061047157600080fd5b90600052602060002090600302016000915090508060000154908060010160009054906101000a900463ffffffff16905082565b60026020528060005260406000206000915054906101000a900463ffffffff1681565b600060405180606001604052803481526020018463ffffffff1681526020018381525090806001815401808255809150506001900390600052602060002090600302016000909190919091506000820151816000015560208201518160010160006101000a81548163ffffffff021916908363ffffffff16021790555060408201518160020190805190602001906105619291906106b3565b505050600060016000805490506105789190610c7d565b9050336001600083815260200190815260200160002060006101000a81548173ffffffffffffffffffffffffffffffffffffffff021916908373ffffffffffffffffffffffffffffffffffffffff160217905550600260003373ffffffffffffffffffffffffffffffffffffffff1673ffffffffffffffffffffffffffffffffffffffff168152602001908152602001600020600081819054906101000a900463ffffffff168092919061062b90610d77565b91906101000a81548163ffffffff021916908363ffffffff160217905550507f7ddf3927cb1a7f551c94827283c02ae2ad827d2afbd72235e48558ef49729a488134858560405161067f9493929190610b19565b60405180910390a1505050565b604051806060016040528060008152602001600063ffffffff168152602001606081525090565b82805482825590600052602060002090810192821561072c579160200282015b8281111561072b5782518260006101000a81548173ffffffffffffffffffffffffffffffffffffffff021916908373ffffffffffffffffffffffffffffffffffffffff160217905550916020019190600101906106d3565b5b509050610739919061073d565b5090565b5b8082111561075657600081600090555060010161073e565b5090565b600061076d61076884610bce565b610ba9565b9050808382526020820190508285602086028201111561078c57600080fd5b60005b858110156107bc57816107a288826107c6565b84526020840193506020830192505060018101905061078f565b5050509392505050565b6000813590506107d581610e13565b92915050565b600082601f8301126107ec57600080fd5b81356107fc84826020860161075a565b91505092915050565b60008135905061081481610e2a565b92915050565b60008135905061082981610e41565b92915050565b60006020828403121561084157600080fd5b600061084f848285016107c6565b91505092915050565b60006020828403121561086a57600080fd5b600061087884828501610805565b91505092915050565b6000806040838503121561089457600080fd5b60006108a28582860161081a565b925050602083013567ffffffffffffffff8111156108bf57600080fd5b6108cb858286016107db565b9150509250929050565b60006108e18383610901565b60208301905092915050565b60006108f98383610a50565b905092915050565b61090a81610cb1565b82525050565b61091981610cb1565b82525050565b600061092a82610c1a565b6109348185610c4a565b935061093f83610bfa565b8060005b8381101561097057815161095788826108d5565b975061096283610c30565b925050600181019050610943565b5085935050505092915050565b600061098882610c1a565b6109928185610c5b565b935061099d83610bfa565b8060005b838110156109ce5781516109b588826108d5565b97506109c083610c30565b9250506001810190506109a1565b5085935050505092915050565b60006109e682610c25565b6109f08185610c6c565b935083602082028501610a0285610c0a565b8060005b85811015610a3e5784840389528151610a1f85826108ed565b9450610a2a83610c3d565b925060208a01995050600181019050610a06565b50829750879550505050505092915050565b6000606083016000830151610a686000860182610aa0565b506020830151610a7b6020860182610abe565b5060408301518482036040860152610a93828261091f565b9150508091505092915050565b610aa981610ce3565b82525050565b610ab881610ce3565b82525050565b610ac781610ced565b82525050565b610ad681610ced565b82525050565b6000602082019050610af16000830184610910565b92915050565b60006020820190508181036000830152610b1181846109db565b905092915050565b6000608082019050610b2e6000830187610aaf565b610b3b6020830186610aaf565b610b486040830185610acd565b8181036060830152610b5a818461097d565b905095945050505050565b6000604082019050610b7a6000830185610aaf565b610b876020830184610acd565b9392505050565b6000602082019050610ba36000830184610acd565b92915050565b6000610bb3610bc4565b9050610bbf8282610cfd565b919050565b6000604051905090565b600067ffffffffffffffff821115610be957610be8610dd3565b5b602082029050602081019050919050565b6000819050602082019050919050565b6000819050602082019050919050565b600081519050919050565b600081519050919050565b6000602082019050919050565b6000602082019050919050565b600082825260208201905092915050565b600082825260208201905092915050565b600082825260208201905092915050565b6000610c8882610ce3565b9150610c9383610ce3565b925082821015610ca657610ca5610da4565b5b828203905092915050565b6000610cbc82610cc3565b9050919050565b600073ffffffffffffffffffffffffffffffffffffffff82169050919050565b6000819050919050565b600063ffffffff82169050919050565b610d0682610e02565b810181811067ffffffffffffffff82111715610d2557610d24610dd3565b5b80604052505050565b6000610d3982610ce3565b91507fffffffffffffffffffffffffffffffffffffffffffffffffffffffffffffffff821415610d6c57610d6b610da4565b5b600182019050919050565b6000610d8282610ced565b915063ffffffff821415610d9957610d98610da4565b5b600182019050919050565b7f4e487b7100000000000000000000000000000000000000000000000000000000600052601160045260246000fd5b7f4e487b7100000000000000000000000000000000000000000000000000000000600052604160045260246000fd5b6000601f19601f8301169050919050565b610e1c81610cb1565b8114610e2757600080fd5b50565b610e3381610ce3565b8114610e3e57600080fd5b50565b610e4a81610ced565b8114610e5557600080fd5b5056fea2646970667358221220f0e52c6bc033fd05e6adeb14923658202514a52db14046f41ab687425f05793164736f6c63430008040033",
  "immutableReferences": {},
  "source": "// SPDX-License-Identifier: GPL-3.0\r\n\r\npragma solidity >=0.7.0 <0.9.0;\r\n\r\n/**\r\n * @title ApolloAgreement\r\n * @dev Manages agreements between promoters and performers for Apollo\r\n */\r\ncontract ApolloAgreement {\r\n    \r\n    struct Agreement{\r\n        uint payoutAmount; // might need to receive in ERC-20/USDT //uint instead of uint32 because msg.value is uint256\r\n        uint32 payoutTime; // epoch 32-bit only works until year 2038!\r\n        address[] payoutDestination; //\r\n    }\r\n    \r\n    Agreement[] public agreements;\r\n    mapping(uint => address) public agreementToPromoter;\r\n    mapping(address => uint32) public promoterAgreementCount; \r\n    \r\n    event NewAgreement(uint agreementId, uint payoutAmount, uint32 payoutTime, address[] payoutDestination); // emit event to listeners in front-end\r\n\r\n    /**\r\n     * @dev Create agreement between performers and promoters\r\n     */\r\n    function createAgreement(uint32 _payoutTime, address[] memory _payoutDestination) public payable {\r\n        agreements.push(Agreement(msg.value, _payoutTime, _payoutDestination));\r\n        uint id = agreements.length - 1;\r\n        agreementToPromoter[id] = msg.sender;\r\n        promoterAgreementCount[msg.sender]++;\r\n        emit NewAgreement(id , msg.value, _payoutTime, _payoutDestination);\r\n    }\r\n\r\n    /**\r\n     * @dev Get agreements between performers and promoters\r\n     */\r\n    function getAgreementsByPromoter(address _promoter) external view returns (Agreement[] memory) {\r\n        Agreement[] memory result = new Agreement[](promoterAgreementCount[_promoter]);\r\n        uint counter = 0;\r\n        for (uint i = 0; i < agreements.length; i++){\r\n          if (agreementToPromoter[i] == _promoter){\r\n            result[counter] = agreements[i];\r\n            counter++;\r\n          }\r\n    \r\n        }\r\n        return result;\r\n      }\r\n}",
  "sourcePath": "C:/Users/ericc/OneDrive/Desktop/Uni Docs/MASP/ApolloMusic/smartcontract/contracts/ApolloAgreement.sol",
  "compiler": {
    "name": "solc",
    "version": "0.8.4+commit.c7e474f2.Emscripten.clang"
  },
  "schemaVersion": "3.4.1",
  "updatedAt": "2021-05-15T05:54:19.407Z",
  "networkType": "ethereum",
  "devdoc": {
    "details": "Manages agreements between promoters and performers for Apollo",
    "kind": "dev",
    "methods": {
      "createAgreement(uint32,address[])": {
        "details": "Create agreement between performers and promoters"
      },
      "getAgreementsByPromoter(address)": {
        "details": "Get agreements between performers and promoters"
      }
    },
    "title": "ApolloAgreement",
    "version": 1
  },
  "userdoc": {
    "kind": "user",
    "methods": {},
    "version": 1
  }
}