{
  "contractName": "ApolloAgreement",
  "abi": [
    {
      "anonymous": false,
      "inputs": [
        {
          "indexed": false,
          "internalType": "uint256",
          "name": "agreementId",
          "type": "uint256"
        },
        {
          "indexed": false,
          "internalType": "uint256",
          "name": "payoutAmount",
          "type": "uint256"
        },
        {
          "indexed": false,
          "internalType": "uint32",
          "name": "payoutTime",
          "type": "uint32"
        },
        {
          "indexed": false,
          "internalType": "address payable[]",
          "name": "payoutDestination",
          "type": "address[]"
        }
      ],
      "name": "NewAgreement",
      "type": "event"
    },
    {
      "anonymous": false,
      "inputs": [
        {
          "indexed": false,
          "internalType": "uint256",
          "name": "agreementId",
          "type": "uint256"
        },
        {
          "indexed": false,
          "internalType": "uint256",
          "name": "payoutAmount",
          "type": "uint256"
        }
      ],
      "name": "PaidAgreement",
      "type": "event"
    },
    {
      "inputs": [
        {
          "internalType": "uint256",
          "name": "",
          "type": "uint256"
        }
      ],
      "name": "agreementToPromoter",
      "outputs": [
        {
          "internalType": "address",
          "name": "",
          "type": "address"
        }
      ],
      "stateMutability": "view",
      "type": "function",
      "constant": true
    },
    {
      "inputs": [
        {
          "internalType": "uint256",
          "name": "",
          "type": "uint256"
        }
      ],
      "name": "agreements",
      "outputs": [
        {
          "internalType": "uint256",
          "name": "payoutAmount",
          "type": "uint256"
        },
        {
          "internalType": "uint256",
          "name": "payoutTime",
          "type": "uint256"
        },
        {
          "internalType": "bool",
          "name": "paid",
          "type": "bool"
        }
      ],
      "stateMutability": "view",
      "type": "function",
      "constant": true
    },
    {
      "inputs": [
        {
          "internalType": "address",
          "name": "",
          "type": "address"
        }
      ],
      "name": "promoterAgreementCount",
      "outputs": [
        {
          "internalType": "uint32",
          "name": "",
          "type": "uint32"
        }
      ],
      "stateMutability": "view",
      "type": "function",
      "constant": true
    },
    {
      "inputs": [
        {
          "internalType": "uint32",
          "name": "_payoutTime",
          "type": "uint32"
        },
        {
          "internalType": "address payable[]",
          "name": "_payoutDestination",
          "type": "address[]"
        }
      ],
      "name": "createAgreement",
      "outputs": [],
      "stateMutability": "payable",
      "type": "function",
      "payable": true
    },
    {
      "inputs": [
        {
          "internalType": "address payable",
          "name": "_promoter",
          "type": "address"
        }
      ],
      "name": "getAgreementsByPromoter",
      "outputs": [
        {
          "components": [
            {
              "internalType": "uint256",
              "name": "payoutAmount",
              "type": "uint256"
            },
            {
              "internalType": "uint256",
              "name": "payoutTime",
              "type": "uint256"
            },
            {
              "internalType": "address payable[]",
              "name": "payoutDestination",
              "type": "address[]"
            },
            {
              "internalType": "bool",
              "name": "paid",
              "type": "bool"
            }
          ],
          "internalType": "struct ApolloAgreement.Agreement[]",
          "name": "",
          "type": "tuple[]"
        }
      ],
      "stateMutability": "view",
      "type": "function",
      "constant": true
    },
    {
      "inputs": [],
      "name": "getPayoutDues",
      "outputs": [
        {
          "internalType": "uint256[]",
          "name": "",
          "type": "uint256[]"
        }
      ],
      "stateMutability": "view",
      "type": "function",
      "constant": true
    },
    {
      "inputs": [
        {
          "internalType": "uint256",
          "name": "_agreementId",
          "type": "uint256"
        }
      ],
      "name": "payoutAgreement",
      "outputs": [],
      "stateMutability": "nonpayable",
      "type": "function"
    },
    {
      "inputs": [],
      "name": "reverseAgreement",
      "outputs": [],
      "stateMutability": "nonpayable",
      "type": "function"
    },
    {
      "inputs": [],
      "name": "modifyAgreement",
      "outputs": [],
      "stateMutability": "nonpayable",
      "type": "function"
    }
  ],
  "bytecode": "0x608060405234801561001057600080fd5b506118ab806100206000396000f3fe6080604052600436106100855760003560e01c806381647d681161005957806381647d681461014457806393ceb6e31461016f578063bd14de9614610186578063ce6f3113146101c5578063fe39595d1461020257610085565b8062319d4b1461008a5780632051cb39146100c75780635f40c37f14610104578063610b10f91461012d575b600080fd5b34801561009657600080fd5b506100b160048036038101906100ac91906110c0565b61021e565b6040516100be91906113dc565b60405180910390f35b3480156100d357600080fd5b506100ee60048036038101906100e99190611097565b610251565b6040516100fb91906113f7565b60405180910390f35b34801561011057600080fd5b5061012b600480360381019061012691906110c0565b61051f565b005b34801561013957600080fd5b5061014261079b565b005b34801561015057600080fd5b5061015961079d565b6040516101669190611419565b60405180910390f35b34801561017b57600080fd5b50610184610a41565b005b34801561019257600080fd5b506101ad60048036038101906101a891906110c0565b610a43565b6040516101bc93929190611464565b60405180910390f35b3480156101d157600080fd5b506101ec60048036038101906101e7919061106e565b610a8a565b6040516101f991906114e7565b60405180910390f35b61021c600480360381019061021791906110e9565b610aad565b005b60016020528060005260406000206000915054906101000a900473ffffffffffffffffffffffffffffffffffffffff1681565b60606000600260008473ffffffffffffffffffffffffffffffffffffffff1673ffffffffffffffffffffffffffffffffffffffff16815260200190815260200160002060009054906101000a900463ffffffff1663ffffffff1667ffffffffffffffff8111156102ea577f4e487b7100000000000000000000000000000000000000000000000000000000600052604160045260246000fd5b60405190808252806020026020018201604052801561032357816020015b610310610eb3565b8152602001906001900390816103085790505b5090506000805b600080549050811015610514578473ffffffffffffffffffffffffffffffffffffffff166001600083815260200190815260200160002060009054906101000a900473ffffffffffffffffffffffffffffffffffffffff1673ffffffffffffffffffffffffffffffffffffffff16141561050157600081815481106103d8577f4e487b7100000000000000000000000000000000000000000000000000000000600052603260045260246000fd5b906000526020600020906004020160405180608001604052908160008201548152602001600182015481526020016002820180548060200260200160405190810160405280929190818152602001828054801561048a57602002820191906000526020600020905b8160009054906101000a900473ffffffffffffffffffffffffffffffffffffffff1673ffffffffffffffffffffffffffffffffffffffff1681526020019060010190808311610440575b505050505081526020016003820160009054906101000a900460ff1615151515815250508383815181106104e7577f4e487b7100000000000000000000000000000000000000000000000000000000600052603260045260246000fd5b602002602001018190525081806104fd90611734565b9250505b808061050c90611734565b91505061032a565b508192505050919050565b600080828154811061055a577f4e487b7100000000000000000000000000000000000000000000000000000000600052603260045260246000fd5b906000526020600020906004020160405180608001604052908160008201548152602001600182015481526020016002820180548060200260200160405190810160405280929190818152602001828054801561060c57602002820191906000526020600020905b8160009054906101000a900473ffffffffffffffffffffffffffffffffffffffff1673ffffffffffffffffffffffffffffffffffffffff16815260200190600101908083116105c2575b505050505081526020016003820160009054906101000a900460ff161515151581525050905060001515816060015115151461064757600080fd5b6201518042610656919061160f565b8160200151111561066657600080fd5b80604001516000815181106106a4577f4e487b7100000000000000000000000000000000000000000000000000000000600052603260045260246000fd5b602002602001015173ffffffffffffffffffffffffffffffffffffffff166108fc82600001519081150290604051600060405180830381858888f193505050501580156106f5573d6000803e3d6000fd5b50600160008381548110610732577f4e487b7100000000000000000000000000000000000000000000000000000000600052603260045260246000fd5b906000526020600020906004020160030160006101000a81548160ff0219169083151502179055507fd287ccdb106383a4dc4c46082f565274a8265ff9ed687035f346bda84d2299e482826000015160405161078f92919061143b565b60405180910390a15050565b565b60606000805b60008054905081101561088e5760001515600082815481106107ee577f4e487b7100000000000000000000000000000000000000000000000000000000600052603260045260246000fd5b906000526020600020906004020160030160009054906101000a900460ff16151514801561086757504260008281548110610852577f4e487b7100000000000000000000000000000000000000000000000000000000600052603260045260246000fd5b90600052602060002090600402016001015411155b1561087b57818061087790611734565b9250505b808061088690611734565b9150506107a3565b5060008167ffffffffffffffff8111156108d1577f4e487b7100000000000000000000000000000000000000000000000000000000600052604160045260246000fd5b6040519080825280602002602001820160405280156108ff5781602001602082028036833780820191505090505b5090506000805b600080549050811015610a37576000151560008281548110610951577f4e487b7100000000000000000000000000000000000000000000000000000000600052603260045260246000fd5b906000526020600020906004020160030160009054906101000a900460ff1615151480156109ca575042600082815481106109b5577f4e487b7100000000000000000000000000000000000000000000000000000000600052603260045260246000fd5b90600052602060002090600402016001015411155b15610a245780838381518110610a09577f4e487b7100000000000000000000000000000000000000000000000000000000600052603260045260246000fd5b6020026020010181815250508180610a2090611734565b9250505b8080610a2f90611734565b915050610906565b5081935050505090565b565b60008181548110610a5357600080fd5b90600052602060002090600402016000915090508060000154908060010154908060030160009054906101000a900460ff16905083565b60026020528060005260406000206000915054906101000a900463ffffffff1681565b60005b600080549050811015610ce1576001151560008281548110610afb577f4e487b7100000000000000000000000000000000000000000000000000000000600052603260045260246000fd5b906000526020600020906004020160030160009054906101000a900460ff1615151415610cce573460008281548110610b5d577f4e487b7100000000000000000000000000000000000000000000000000000000600052603260045260246000fd5b9060005260206000209060040201600001819055508263ffffffff1660008281548110610bb3577f4e487b7100000000000000000000000000000000000000000000000000000000600052603260045260246000fd5b9060005260206000209060040201600101819055508160008281548110610c03577f4e487b7100000000000000000000000000000000000000000000000000000000600052603260045260246000fd5b90600052602060002090600402016002019080519060200190610c27929190610edd565b506000808281548110610c63577f4e487b7100000000000000000000000000000000000000000000000000000000600052603260045260246000fd5b906000526020600020906004020160030160006101000a81548160ff0219169083151502179055507f7ddf3927cb1a7f551c94827283c02ae2ad827d2afbd72235e48558ef49729a4881348585604051610cc0949392919061149b565b60405180910390a150610eaf565b8080610cd990611734565b915050610ab0565b50600060405180608001604052803481526020018463ffffffff16815260200183815260200160001515815250908060018154018082558091505060019003906000526020600020906004020160009091909190915060008201518160000155602082015181600101556040820151816002019080519060200190610d67929190610edd565b5060608201518160030160006101000a81548160ff021916908315150217905550505060006001600080549050610d9e9190611665565b9050336001600083815260200190815260200160002060006101000a81548173ffffffffffffffffffffffffffffffffffffffff021916908373ffffffffffffffffffffffffffffffffffffffff160217905550600260003373ffffffffffffffffffffffffffffffffffffffff1673ffffffffffffffffffffffffffffffffffffffff168152602001908152602001600020600081819054906101000a900463ffffffff1680929190610e519061177d565b91906101000a81548163ffffffff021916908363ffffffff160217905550507f7ddf3927cb1a7f551c94827283c02ae2ad827d2afbd72235e48558ef49729a4881348585604051610ea5949392919061149b565b60405180910390a1505b5050565b60405180608001604052806000815260200160008152602001606081526020016000151581525090565b828054828255906000526020600020908101928215610f56579160200282015b82811115610f555782518260006101000a81548173ffffffffffffffffffffffffffffffffffffffff021916908373ffffffffffffffffffffffffffffffffffffffff16021790555091602001919060010190610efd565b5b509050610f639190610f67565b5090565b5b80821115610f80576000816000905550600101610f68565b5090565b6000610f97610f9284611527565b611502565b90508083825260208201905082856020860282011115610fb657600080fd5b60005b85811015610fe65781610fcc8882611005565b845260208401935060208301925050600181019050610fb9565b5050509392505050565b600081359050610fff81611819565b92915050565b60008135905061101481611830565b92915050565b600082601f83011261102b57600080fd5b813561103b848260208601610f84565b91505092915050565b60008135905061105381611847565b92915050565b6000813590506110688161185e565b92915050565b60006020828403121561108057600080fd5b600061108e84828501610ff0565b91505092915050565b6000602082840312156110a957600080fd5b60006110b784828501611005565b91505092915050565b6000602082840312156110d257600080fd5b60006110e084828501611044565b91505092915050565b600080604083850312156110fc57600080fd5b600061110a85828601611059565b925050602083013567ffffffffffffffff81111561112757600080fd5b6111338582860161101a565b9150509250929050565b60006111498383611181565b60208301905092915050565b6000611161838361134c565b905092915050565b600061117583836113af565b60208301905092915050565b61118a816116ab565b82525050565b61119981611699565b82525050565b60006111aa82611583565b6111b481856115cb565b93506111bf83611553565b8060005b838110156111f05781516111d7888261113d565b97506111e2836115a4565b9250506001810190506111c3565b5085935050505092915050565b600061120882611583565b61121281856115dc565b935061121d83611553565b8060005b8381101561124e578151611235888261113d565b9750611240836115a4565b925050600181019050611221565b5085935050505092915050565b60006112668261158e565b61127081856115ed565b93508360208202850161128285611563565b8060005b858110156112be578484038952815161129f8582611155565b94506112aa836115b1565b925060208a01995050600181019050611286565b50829750879550505050505092915050565b60006112db82611599565b6112e581856115fe565b93506112f083611573565b8060005b838110156113215781516113088882611169565b9750611313836115be565b9250506001810190506112f4565b5085935050505092915050565b611337816116bd565b82525050565b611346816116bd565b82525050565b600060808301600083015161136460008601826113af565b50602083015161137760208601826113af565b506040830151848203604086015261138f828261119f565b91505060608301516113a4606086018261132e565b508091505092915050565b6113b8816116e9565b82525050565b6113c7816116e9565b82525050565b6113d6816116f3565b82525050565b60006020820190506113f16000830184611190565b92915050565b60006020820190508181036000830152611411818461125b565b905092915050565b6000602082019050818103600083015261143381846112d0565b905092915050565b600060408201905061145060008301856113be565b61145d60208301846113be565b9392505050565b600060608201905061147960008301866113be565b61148660208301856113be565b611493604083018461133d565b949350505050565b60006080820190506114b060008301876113be565b6114bd60208301866113be565b6114ca60408301856113cd565b81810360608301526114dc81846111fd565b905095945050505050565b60006020820190506114fc60008301846113cd565b92915050565b600061150c61151d565b90506115188282611703565b919050565b6000604051905090565b600067ffffffffffffffff821115611542576115416117d9565b5b602082029050602081019050919050565b6000819050602082019050919050565b6000819050602082019050919050565b6000819050602082019050919050565b600081519050919050565b600081519050919050565b600081519050919050565b6000602082019050919050565b6000602082019050919050565b6000602082019050919050565b600082825260208201905092915050565b600082825260208201905092915050565b600082825260208201905092915050565b600082825260208201905092915050565b600061161a826116e9565b9150611625836116e9565b9250827fffffffffffffffffffffffffffffffffffffffffffffffffffffffffffffffff0382111561165a576116596117aa565b5b828201905092915050565b6000611670826116e9565b915061167b836116e9565b92508282101561168e5761168d6117aa565b5b828203905092915050565b60006116a4826116c9565b9050919050565b60006116b6826116c9565b9050919050565b60008115159050919050565b600073ffffffffffffffffffffffffffffffffffffffff82169050919050565b6000819050919050565b600063ffffffff82169050919050565b61170c82611808565b810181811067ffffffffffffffff8211171561172b5761172a6117d9565b5b80604052505050565b600061173f826116e9565b91507fffffffffffffffffffffffffffffffffffffffffffffffffffffffffffffffff821415611772576117716117aa565b5b600182019050919050565b6000611788826116f3565b915063ffffffff82141561179f5761179e6117aa565b5b600182019050919050565b7f4e487b7100000000000000000000000000000000000000000000000000000000600052601160045260246000fd5b7f4e487b7100000000000000000000000000000000000000000000000000000000600052604160045260246000fd5b6000601f19601f8301169050919050565b61182281611699565b811461182d57600080fd5b50565b611839816116ab565b811461184457600080fd5b50565b611850816116e9565b811461185b57600080fd5b50565b611867816116f3565b811461187257600080fd5b5056fea2646970667358221220e1bee5cfbc4975ddfb5a2d5e52ae42af9ce9d1c7678e9622caac5df1700b397c64736f6c63430008040033",
  "immutableReferences": {},
  "source": "// SPDX-License-Identifier: GPL-3.0\n\npragma solidity >=0.7.0 <0.9.0;\n\n/**\n * @title ApolloAgreement\n * @dev Manages agreements between promoters and performers for Apollo\n */\ncontract ApolloAgreement {\n\n    struct Agreement{\n        uint payoutAmount; // ERC-20/USDT implemention required\n        uint payoutTime;\n        address payable[] payoutDestination;\n        bool paid;\n    }\n\n    Agreement[] public agreements;\n    mapping(uint => address) public agreementToPromoter;\n    mapping(address => uint32) public promoterAgreementCount;\n\n    // emit events to listeners in front-end\n    event NewAgreement(uint agreementId, uint payoutAmount, uint32 payoutTime, address payable[] payoutDestination);\n    event PaidAgreement(uint agreementId, uint payoutAmount);\n\n    /**\n     * @dev Create agreement between promoter and performer(s)\n     */\n    function createAgreement(uint32 _payoutTime, address payable[] memory _payoutDestination) public payable {\n    \t// check for paid agreements to replace instead of creating new agreements\n    \tfor (uint i = 0; i < agreements.length; i++){\n    \t    if (agreements[i].paid == true){\n    \t        agreements[i].payoutAmount = msg.value;\n    \t        agreements[i].payoutTime = _payoutTime;\n    \t        agreements[i].payoutDestination = _payoutDestination;\n    \t        agreements[i].paid = false;\n    \t        emit NewAgreement(i , msg.value, _payoutTime, _payoutDestination);\n    \t        return;\n    \t    }\n    \t}\n\n    \t// create new agreement in array if not found\n        agreements.push(Agreement(msg.value, _payoutTime, _payoutDestination, false));\n        uint id = agreements.length - 1;\n        agreementToPromoter[id] = msg.sender;\n        promoterAgreementCount[msg.sender]++;\n        emit NewAgreement(id , msg.value, _payoutTime, _payoutDestination);\n    }\n\n    /**\n     * @dev Get agreements by promoter\n     */\n    function getAgreementsByPromoter(address payable _promoter) external view returns (Agreement[] memory) {\n        Agreement[] memory result = new Agreement[](promoterAgreementCount[_promoter]);\n        uint counter = 0;\n        for (uint i = 0; i < agreements.length; i++){\n          if (agreementToPromoter[i] == _promoter){\n            result[counter] = agreements[i];\n            counter++;\n          }\n        }\n        return result;\n    }\n\n    /**\n     * @dev Query agreement IDs that are due for payout\n     */\n    function getPayoutDues() external view returns (uint[] memory) {\n        uint size = 0;\n        for (uint i = 0; i < agreements.length; i++){\n          if (agreements[i].paid == false && agreements[i].payoutTime <= block.timestamp){\n            size++;\n          }\n        }\n\n    \tuint[] memory due = new uint[](size);\n    \tuint counter = 0;\n    \tfor (uint i = 0; i < agreements.length; i++){\n          if (agreements[i].paid == false && agreements[i].payoutTime <= block.timestamp){\n            due[counter] = i;\n            counter++;\n          }\n        }\n        return due;\n    }\n\n    /**\n     * @dev Trigger payout from promoter to performer(s) by agreement ID\n     */\n    function payoutAgreement(uint _agreementId) public { // might change to private and implement batch payout\n    \tAgreement memory agreement = agreements[_agreementId];\n      require(agreement.paid == false);\n    \trequire(agreement.payoutTime <= (block.timestamp + 86400)); // window for payout is 24 hours (86400s) after payout time\n    \tagreement.payoutDestination[0].transfer(agreement.payoutAmount);\n      agreements[_agreementId].paid = true;\n    \temit PaidAgreement(_agreementId, agreement.payoutAmount);\n    }\n\n    /**\n     * @dev Reverse payment back to promoter before payout\n     */\n    function reverseAgreement() public {\n    }\n\n    /**\n    * @dev Modify agreement details\n    */\n    function modifyAgreement() public {\n    }\n}\n",
  "sourcePath": "/home/will/Desktop/School/ApolloMusic/smartcontract/contracts/ApolloAgreement.sol",
  "compiler": {
    "name": "solc",
    "version": "0.8.4+commit.c7e474f2.Emscripten.clang"
  },
  "schemaVersion": "3.4.3",
  "updatedAt": "2021-08-27T09:20:57.776Z",
  "networkType": "ethereum",
  "devdoc": {
    "details": "Manages agreements between promoters and performers for Apollo",
    "kind": "dev",
    "methods": {
      "createAgreement(uint32,address[])": {
        "details": "Create agreement between promoter and performer(s)"
      },
      "getAgreementsByPromoter(address)": {
        "details": "Get agreements by promoter"
      },
      "getPayoutDues()": {
        "details": "Query agreement IDs that are due for payout"
      },
      "modifyAgreement()": {
        "details": "Modify agreement details"
      },
      "payoutAgreement(uint256)": {
        "details": "Trigger payout from promoter to performer(s) by agreement ID"
      },
      "reverseAgreement()": {
        "details": "Reverse payment back to promoter before payout"
      }
    },
    "title": "ApolloAgreement",
    "version": 1
  },
  "userdoc": {
    "kind": "user",
    "methods": {},
    "version": 1
  }
}