{
  "contractName": "Demo",
  "abi": [
    {
      "inputs": [
        {
          "internalType": "string",
          "name": "_name",
          "type": "string"
        }
      ],
      "stateMutability": "nonpayable",
      "type": "constructor"
    },
    {
      "inputs": [],
      "name": "name",
      "outputs": [
        {
          "internalType": "string",
          "name": "",
          "type": "string"
        }
      ],
      "stateMutability": "view",
      "type": "function",
      "constant": true
    },
    {
      "inputs": [],
      "name": "getOwner",
      "outputs": [
        {
          "internalType": "address",
          "name": "",
          "type": "address"
        }
      ],
      "stateMutability": "view",
      "type": "function",
      "constant": true
    },
    {
      "inputs": [
        {
          "internalType": "string",
          "name": "_name",
          "type": "string"
        }
      ],
      "name": "setName",
      "outputs": [],
      "stateMutability": "nonpayable",
      "type": "function"
    }
  ],
  "bytecode": "0x60806040523480156200001157600080fd5b50604051620009cc380380620009cc8339818101604052810190620000379190620001b9565b80600190805190602001906200004f92919062000097565b50336000806101000a81548173ffffffffffffffffffffffffffffffffffffffff021916908373ffffffffffffffffffffffffffffffffffffffff160217905550506200036e565b828054620000a59062000293565b90600052602060002090601f016020900481019282620000c9576000855562000115565b82601f10620000e457805160ff191683800117855562000115565b8280016001018555821562000115579182015b8281111562000114578251825591602001919060010190620000f7565b5b50905062000124919062000128565b5090565b5b808211156200014357600081600090555060010162000129565b5090565b60006200015e620001588462000227565b620001fe565b9050828152602081018484840111156200017757600080fd5b620001848482856200025d565b509392505050565b600082601f8301126200019e57600080fd5b8151620001b084826020860162000147565b91505092915050565b600060208284031215620001cc57600080fd5b600082015167ffffffffffffffff811115620001e757600080fd5b620001f5848285016200018c565b91505092915050565b60006200020a6200021d565b9050620002188282620002c9565b919050565b6000604051905090565b600067ffffffffffffffff8211156200024557620002446200032e565b5b62000250826200035d565b9050602081019050919050565b60005b838110156200027d57808201518184015260208101905062000260565b838111156200028d576000848401525b50505050565b60006002820490506001821680620002ac57607f821691505b60208210811415620002c357620002c2620002ff565b5b50919050565b620002d4826200035d565b810181811067ffffffffffffffff82111715620002f657620002f56200032e565b5b80604052505050565b7f4e487b7100000000000000000000000000000000000000000000000000000000600052602260045260246000fd5b7f4e487b7100000000000000000000000000000000000000000000000000000000600052604160045260246000fd5b6000601f19601f8301169050919050565b61064e806200037e6000396000f3fe608060405234801561001057600080fd5b50600436106100415760003560e01c806306fdde0314610046578063893d20e814610064578063c47f002714610082575b600080fd5b61004e61009e565b60405161005b91906103cf565b60405180910390f35b61006c61012c565b60405161007991906103b4565b60405180910390f35b61009c60048036038101906100979190610308565b610155565b005b600180546100ab906104f7565b80601f01602080910402602001604051908101604052809291908181526020018280546100d7906104f7565b80156101245780601f106100f957610100808354040283529160200191610124565b820191906000526020600020905b81548152906001019060200180831161010757829003601f168201915b505050505081565b60008060009054906101000a900473ffffffffffffffffffffffffffffffffffffffff16905090565b60008054906101000a900473ffffffffffffffffffffffffffffffffffffffff1673ffffffffffffffffffffffffffffffffffffffff163373ffffffffffffffffffffffffffffffffffffffff16146101e3576040517f08c379a00000000000000000000000000000000000000000000000000000000081526004016101da906103f1565b60405180910390fd5b80600190805190602001906101f99291906101fd565b5050565b828054610209906104f7565b90600052602060002090601f01602090048101928261022b5760008555610272565b82601f1061024457805160ff1916838001178555610272565b82800160010185558215610272579182015b82811115610271578251825591602001919060010190610256565b5b50905061027f9190610283565b5090565b5b8082111561029c576000816000905550600101610284565b5090565b60006102b36102ae84610436565b610411565b9050828152602081018484840111156102cb57600080fd5b6102d68482856104b5565b509392505050565b600082601f8301126102ef57600080fd5b81356102ff8482602086016102a0565b91505092915050565b60006020828403121561031a57600080fd5b600082013567ffffffffffffffff81111561033457600080fd5b610340848285016102de565b91505092915050565b61035281610483565b82525050565b600061036382610467565b61036d8185610472565b935061037d8185602086016104c4565b610386816105b8565b840191505092915050565b600061039e603283610472565b91506103a9826105c9565b604082019050919050565b60006020820190506103c96000830184610349565b92915050565b600060208201905081810360008301526103e98184610358565b905092915050565b6000602082019050818103600083015261040a81610391565b9050919050565b600061041b61042c565b90506104278282610529565b919050565b6000604051905090565b600067ffffffffffffffff82111561045157610450610589565b5b61045a826105b8565b9050602081019050919050565b600081519050919050565b600082825260208201905092915050565b600061048e82610495565b9050919050565b600073ffffffffffffffffffffffffffffffffffffffff82169050919050565b82818337600083830152505050565b60005b838110156104e25780820151818401526020810190506104c7565b838111156104f1576000848401525b50505050565b6000600282049050600182168061050f57607f821691505b602082108114156105235761052261055a565b5b50919050565b610532826105b8565b810181811067ffffffffffffffff8211171561055157610550610589565b5b80604052505050565b7f4e487b7100000000000000000000000000000000000000000000000000000000600052602260045260246000fd5b7f4e487b7100000000000000000000000000000000000000000000000000000000600052604160045260246000fd5b6000601f19601f8301169050919050565b7f4572726f723a206f6e6c792074686520636f6e7472616374206f776e6572206360008201527f616e206368616e676520746865206e616d65000000000000000000000000000060208201525056fea26469706673582212200170232e4b7f3ff66f077fa40dfecae3e1b314471c883aff92e73db81854225164736f6c63430008040033",
  "immutableReferences": {},
  "source": "// SPDX-License-Identifier: MIT\r\npragma solidity ^0.8.4;\r\n\r\ncontract Demo {\r\n    address private _owner;\r\n    string public name;\r\n\r\n    constructor(string memory _name) {\r\n        name = _name;\r\n        _owner = msg.sender;\r\n    }\r\n\r\n    function getOwner() public view returns (address) {\r\n        return _owner;\r\n    }\r\n\r\n    function setName(string memory _name) public {\r\n        require(\r\n            msg.sender == _owner,\r\n            \"Error: only the contract owner can change the name\"\r\n        );\r\n        name = _name;\r\n    }\r\n}\r\n",
  "sourcePath": "C:/Users/ericc/OneDrive/Desktop/Uni Docs/MASP/ApolloMusic/smartcontract/contracts/Demo.sol",
  "compiler": {
    "name": "solc",
    "version": "0.8.4+commit.c7e474f2.Emscripten.clang"
  },
  "schemaVersion": "3.4.1",
  "updatedAt": "2021-05-14T06:56:09.098Z",
  "networkType": "ethereum",
  "devdoc": {
    "kind": "dev",
    "methods": {},
    "version": 1
  },
  "userdoc": {
    "kind": "user",
    "methods": {},
    "version": 1
  }
}